{
  "contractName": "WorldCredit",
  "abi": [
    {
      "constant": true,
      "inputs": [
        {
          "name": "",
          "type": "address"
        }
      ],
      "name": "pendingAdjustment",
      "outputs": [
        {
          "name": "",
          "type": "int32"
        }
      ],
      "payable": false,
      "stateMutability": "view",
      "type": "function"
    },
    {
      "constant": false,
      "inputs": [],
      "name": "renounceOwnership",
      "outputs": [],
      "payable": false,
      "stateMutability": "nonpayable",
      "type": "function"
    },
    {
      "constant": true,
      "inputs": [],
      "name": "owner",
      "outputs": [
        {
          "name": "",
          "type": "address"
        }
      ],
      "payable": false,
      "stateMutability": "view",
      "type": "function"
    },
    {
      "constant": true,
      "inputs": [
        {
          "name": "",
          "type": "address"
        }
      ],
      "name": "accountBalance",
      "outputs": [
        {
          "name": "",
          "type": "int32"
        }
      ],
      "payable": false,
      "stateMutability": "view",
      "type": "function"
    },
    {
      "constant": false,
      "inputs": [
        {
          "name": "_newOwner",
          "type": "address"
        }
      ],
      "name": "transferOwnership",
      "outputs": [],
      "payable": false,
      "stateMutability": "nonpayable",
      "type": "function"
    },
    {
      "inputs": [],
      "payable": false,
      "stateMutability": "nonpayable",
      "type": "constructor"
    },
    {
      "anonymous": false,
      "inputs": [
        {
          "indexed": true,
          "name": "previousOwner",
          "type": "address"
        }
      ],
      "name": "OwnershipRenounced",
      "type": "event"
    },
    {
      "anonymous": false,
      "inputs": [
        {
          "indexed": true,
          "name": "previousOwner",
          "type": "address"
        },
        {
          "indexed": true,
          "name": "newOwner",
          "type": "address"
        }
      ],
      "name": "OwnershipTransferred",
      "type": "event"
    },
    {
      "constant": false,
      "inputs": [
        {
          "name": "_account",
          "type": "address"
        },
        {
          "name": "_adjustment",
          "type": "int32"
        }
      ],
      "name": "adjustBalance",
      "outputs": [],
      "payable": false,
      "stateMutability": "nonpayable",
      "type": "function"
    },
    {
      "constant": false,
      "inputs": [],
      "name": "approveBalanceAdjustment",
      "outputs": [],
      "payable": false,
      "stateMutability": "nonpayable",
      "type": "function"
    }
  ],
  "bytecode": "0x608060405234801561001057600080fd5b50336000806101000a81548173ffffffffffffffffffffffffffffffffffffffff021916908373ffffffffffffffffffffffffffffffffffffffff1602179055507fffffffffffffffffffffffffffffffffffffffffffffffffffffffffffffd8f0600060146101000a81548163ffffffff021916908360030b63ffffffff160217905550610ad5806100a46000396000f300608060405260043610610083576000357c0100000000000000000000000000000000000000000000000000000000900463ffffffff16806310b4e50b146100885780632b7e50e8146100e5578063715018a6146100fc5780638da5cb5b14610113578063bf42af751461016a578063d294cb0f146101ba578063f2fde38b14610217575b600080fd5b34801561009457600080fd5b506100c9600480360381019080803573ffffffffffffffffffffffffffffffffffffffff16906020019092919050505061025a565b604051808260030b60030b815260200191505060405180910390f35b3480156100f157600080fd5b506100fa61027a565b005b34801561010857600080fd5b506101116105d8565b005b34801561011f57600080fd5b506101286106da565b604051808273ffffffffffffffffffffffffffffffffffffffff1673ffffffffffffffffffffffffffffffffffffffff16815260200191505060405180910390f35b34801561017657600080fd5b506101b8600480360381019080803573ffffffffffffffffffffffffffffffffffffffff169060200190929190803560030b90602001909291905050506106ff565b005b3480156101c657600080fd5b506101fb600480360381019080803573ffffffffffffffffffffffffffffffffffffffff1690602001909291905050506108e4565b604051808260030b60030b815260200191505060405180910390f35b34801561022357600080fd5b50610258600480360381019080803573ffffffffffffffffffffffffffffffffffffffff169060200190929190505050610904565b005b60026020528060005260406000206000915054906101000a900460030b81565b600080600260003373ffffffffffffffffffffffffffffffffffffffff1673ffffffffffffffffffffffffffffffffffffffff16815260200190815260200160002060009054906101000a900460030b60030b13156103e657610381600260003373ffffffffffffffffffffffffffffffffffffffff1673ffffffffffffffffffffffffffffffffffffffff16815260200190815260200160002060009054906101000a900460030b600160003373ffffffffffffffffffffffffffffffffffffffff1673ffffffffffffffffffffffffffffffffffffffff16815260200190815260200160002060009054906101000a900460030b60030b61096b90919063ffffffff16565b600160003373ffffffffffffffffffffffffffffffffffffffff1673ffffffffffffffffffffffffffffffffffffffff16815260200190815260200160002060006101000a81548163ffffffff021916908360030b63ffffffff160217905550610573565b6000600260003373ffffffffffffffffffffffffffffffffffffffff1673ffffffffffffffffffffffffffffffffffffffff16815260200190815260200160002060009054906101000a900460030b60030b121561057257600260003373ffffffffffffffffffffffffffffffffffffffff1673ffffffffffffffffffffffffffffffffffffffff16815260200190815260200160002060009054906101000a900460030b7fffffffffffffffffffffffffffffffffffffffffffffffffffffffffffffffff02905061051181600160003373ffffffffffffffffffffffffffffffffffffffff1673ffffffffffffffffffffffffffffffffffffffff16815260200190815260200160002060009054906101000a900460030b60030b61098d90919063ffffffff16565b600160003373ffffffffffffffffffffffffffffffffffffffff1673ffffffffffffffffffffffffffffffffffffffff16815260200190815260200160002060006101000a81548163ffffffff021916908360030b63ffffffff1602179055505b5b6000600260003373ffffffffffffffffffffffffffffffffffffffff1673ffffffffffffffffffffffffffffffffffffffff16815260200190815260200160002060006101000a81548163ffffffff021916908360030b63ffffffff16021790555050565b6000809054906101000a900473ffffffffffffffffffffffffffffffffffffffff1673ffffffffffffffffffffffffffffffffffffffff163373ffffffffffffffffffffffffffffffffffffffff1614151561063357600080fd5b6000809054906101000a900473ffffffffffffffffffffffffffffffffffffffff1673ffffffffffffffffffffffffffffffffffffffff167ff8df31144d9c2f0f6b59d69b8b98abd5459d07f2742c4df920b25aae33c6482060405160405180910390a260008060006101000a81548173ffffffffffffffffffffffffffffffffffffffff021916908373ffffffffffffffffffffffffffffffffffffffff160217905550565b6000809054906101000a900473ffffffffffffffffffffffffffffffffffffffff1681565b6000809054906101000a900473ffffffffffffffffffffffffffffffffffffffff1673ffffffffffffffffffffffffffffffffffffffff163373ffffffffffffffffffffffffffffffffffffffff1614151561075a57600080fd5b60008160030b1415151561076d57600080fd5b6000600260008473ffffffffffffffffffffffffffffffffffffffff1673ffffffffffffffffffffffffffffffffffffffff16815260200190815260200160002060009054906101000a900460030b60030b1415156107cb57600080fd5b60008160030b121561087f57600060149054906101000a900460030b60030b61086e827fffffffffffffffffffffffffffffffffffffffffffffffffffffffffffffffff02600160008673ffffffffffffffffffffffffffffffffffffffff1673ffffffffffffffffffffffffffffffffffffffff16815260200190815260200160002060009054906101000a900460030b60030b61098d90919063ffffffff16565b60030b1215151561087e57600080fd5b5b80600260008473ffffffffffffffffffffffffffffffffffffffff1673ffffffffffffffffffffffffffffffffffffffff16815260200190815260200160002060006101000a81548163ffffffff021916908360030b63ffffffff1602179055505050565b60016020528060005260406000206000915054906101000a900460030b81565b6000809054906101000a900473ffffffffffffffffffffffffffffffffffffffff1673ffffffffffffffffffffffffffffffffffffffff163373ffffffffffffffffffffffffffffffffffffffff1614151561095f57600080fd5b610968816109af565b50565b600081830190508260030b8160030b1215151561098457fe5b80905092915050565b600081830390508260030b8160030b131515156109a657fe5b80905092915050565b600073ffffffffffffffffffffffffffffffffffffffff168173ffffffffffffffffffffffffffffffffffffffff16141515156109eb57600080fd5b8073ffffffffffffffffffffffffffffffffffffffff166000809054906101000a900473ffffffffffffffffffffffffffffffffffffffff1673ffffffffffffffffffffffffffffffffffffffff167f8be0079c531659141344cd1fd0a4f28419497f9722a3daafe3b4186f6b6457e060405160405180910390a3806000806101000a81548173ffffffffffffffffffffffffffffffffffffffff021916908373ffffffffffffffffffffffffffffffffffffffff160217905550505600a165627a7a723058207fd77a0b84c3187fa7ecbf294450ff0c1a0c1ebf64999e511ac91f36ff1a6d670029",
  "source": "pragma solidity ^0.4.24;\r\n\r\nimport \"openzeppelin-solidity/contracts/ownership/Ownable.sol\";\r\nimport \"./SafeMath32.sol\";\r\n\r\ncontract WorldCredit is Ownable {\r\n  \r\n  using SafeMath32 for int32;\r\n\r\n  // Maximum amount any borrower can borrow\r\n  int32 ACCOUNT_CREDIT_LIMIT;\r\n  \r\n  mapping (address => int32) public accountBalance;\r\n  mapping (address => int32) public pendingAdjustment;\r\n  \r\n  // Constructor\r\n  //\r\n  constructor() public {\r\n    ACCOUNT_CREDIT_LIMIT = -10000;\r\n  }\r\n\r\n  // Adjust the account balance for a borrower (if there is no pending adjustment)\r\n  //  - Only the loan administrator can do this.\r\n  //\r\n  function adjustBalance(address _account, int32 _adjustment) public onlyOwner {\r\n    require(_adjustment != 0);\r\n\t  require(pendingAdjustment[_account] == 0);\r\n\r\n    if (_adjustment < 0) {\r\n      require(accountBalance[_account].sub(-1*_adjustment) >= ACCOUNT_CREDIT_LIMIT);\r\n    }\r\n\r\n    pendingAdjustment[_account] = _adjustment;\r\n  }\r\n\r\n  // Approve a pending balance adjustment.\r\n  //  - Only the account owner is allowed to approve.\r\n  //\r\n  function approveBalanceAdjustment() public {\r\n    \r\n    if (pendingAdjustment[msg.sender] > 0) {\r\n      accountBalance[msg.sender] = accountBalance[msg.sender].add(pendingAdjustment[msg.sender]);\r\n    }\r\n    else if (pendingAdjustment[msg.sender] < 0) {\r\n      int32 adjustment = -1 * pendingAdjustment[msg.sender];\r\n      accountBalance[msg.sender] = accountBalance[msg.sender].sub(adjustment);\r\n    }\r\n\r\n    pendingAdjustment[msg.sender] = 0;\r\n  }\r\n}\r\n",
  "sourcePath": "C:\\Users\\sewong\\Desktop\\Etherium\\WorldCredit\\WorldCredit\\backend\\contracts\\WorldCredit.sol",
  "compiler": {
    "name": "solc",
    "version": "0.4.24+commit.e67f0147.Emscripten.clang"
  },
  "schemaVersion": "2.0.1",
  "updatedAt": "2018-08-06T15:45:59.846Z"
}